{
  "_format": "hh-sol-artifact-1",
  "contractName": "PostTrackerV2",
  "sourceName": "contracts/PostTrackerV2.sol",
  "abi": [
    {
      "inputs": [
        {
          "internalType": "address",
          "name": "_easAddr",
          "type": "address"
        },
        {
          "internalType": "address",
          "name": "_worldVerifier",
          "type": "address"
        }
      ],
      "stateMutability": "nonpayable",
      "type": "constructor"
    },
    {
      "inputs": [
        {
          "internalType": "address",
          "name": "_account",
          "type": "address"
        }
      ],
      "name": "getNumThreads",
      "outputs": [
        {
          "internalType": "uint256",
          "name": "",
          "type": "uint256"
        }
      ],
      "stateMutability": "view",
      "type": "function"
    },
    {
      "inputs": [
        {
          "internalType": "address",
          "name": "_account",
          "type": "address"
        },
        {
          "internalType": "uint256",
          "name": "_thread",
          "type": "uint256"
        }
      ],
      "name": "getPostsInThread",
      "outputs": [
        {
          "components": [
            {
              "internalType": "string",
              "name": "cid",
              "type": "string"
            },
            {
              "internalType": "uint256",
              "name": "timestamp",
              "type": "uint256"
            },
            {
              "internalType": "address",
              "name": "poster",
              "type": "address"
            },
            {
              "internalType": "enum PostTrackerV2.Type",
              "name": "postType",
              "type": "uint8"
            }
          ],
          "internalType": "struct PostTrackerV2.Post[]",
          "name": "",
          "type": "tuple[]"
        }
      ],
      "stateMutability": "view",
      "type": "function"
    },
    {
      "inputs": [
        {
          "internalType": "string",
          "name": "_cid",
          "type": "string"
        },
        {
          "internalType": "address",
          "name": "_account",
          "type": "address"
        },
        {
          "internalType": "uint256",
          "name": "threadNum",
          "type": "uint256"
        },
        {
          "internalType": "address",
          "name": "signal",
          "type": "address"
        },
        {
          "internalType": "uint256",
          "name": "root",
          "type": "uint256"
        },
        {
          "internalType": "uint256",
          "name": "nullifierHash",
          "type": "uint256"
        },
        {
          "internalType": "uint256[8]",
          "name": "proof",
          "type": "uint256[8]"
        }
      ],
      "name": "newCosign",
      "outputs": [
        {
          "components": [
            {
              "internalType": "string",
              "name": "cid",
              "type": "string"
            },
            {
              "internalType": "uint256",
              "name": "timestamp",
              "type": "uint256"
            },
            {
              "internalType": "address",
              "name": "poster",
              "type": "address"
            },
            {
              "internalType": "enum PostTrackerV2.Type",
              "name": "postType",
              "type": "uint8"
            }
          ],
          "internalType": "struct PostTrackerV2.Post",
          "name": "",
          "type": "tuple"
        }
      ],
      "stateMutability": "nonpayable",
      "type": "function"
    },
    {
      "inputs": [
        {
          "internalType": "string",
          "name": "_cid",
          "type": "string"
        },
        {
          "internalType": "address",
          "name": "_account",
          "type": "address"
        }
      ],
      "name": "newPost",
      "outputs": [
        {
          "components": [
            {
              "internalType": "string",
              "name": "cid",
              "type": "string"
            },
            {
              "internalType": "uint256",
              "name": "timestamp",
              "type": "uint256"
            },
            {
              "internalType": "address",
              "name": "poster",
              "type": "address"
            },
            {
              "internalType": "enum PostTrackerV2.Type",
              "name": "postType",
              "type": "uint8"
            }
          ],
          "internalType": "struct PostTrackerV2.Post",
          "name": "",
          "type": "tuple"
        }
      ],
      "stateMutability": "nonpayable",
      "type": "function"
    },
    {
      "inputs": [
        {
          "internalType": "string",
          "name": "_cid",
          "type": "string"
        },
        {
          "internalType": "address",
          "name": "_account",
          "type": "address"
        },
        {
          "internalType": "uint256",
          "name": "threadNum",
          "type": "uint256"
        }
      ],
      "name": "newReply",
      "outputs": [
        {
          "components": [
            {
              "internalType": "string",
              "name": "cid",
              "type": "string"
            },
            {
              "internalType": "uint256",
              "name": "timestamp",
              "type": "uint256"
            },
            {
              "internalType": "address",
              "name": "poster",
              "type": "address"
            },
            {
              "internalType": "enum PostTrackerV2.Type",
              "name": "postType",
              "type": "uint8"
            }
          ],
          "internalType": "struct PostTrackerV2.Post",
          "name": "",
          "type": "tuple"
        }
      ],
      "stateMutability": "nonpayable",
      "type": "function"
    },
    {
      "inputs": [
        {
          "internalType": "string",
          "name": "_cid",
          "type": "string"
        },
        {
          "internalType": "address",
          "name": "_account",
          "type": "address"
        },
        {
          "internalType": "uint256",
          "name": "threadNum",
          "type": "uint256"
        },
        {
          "internalType": "bytes32",
          "name": "_attestationUID",
          "type": "bytes32"
        }
      ],
      "name": "newReview",
      "outputs": [
        {
          "components": [
            {
              "internalType": "string",
              "name": "cid",
              "type": "string"
            },
            {
              "internalType": "uint256",
              "name": "timestamp",
              "type": "uint256"
            },
            {
              "internalType": "address",
              "name": "poster",
              "type": "address"
            },
            {
              "internalType": "enum PostTrackerV2.Type",
              "name": "postType",
              "type": "uint8"
            }
          ],
          "internalType": "struct PostTrackerV2.Post",
          "name": "",
          "type": "tuple"
        }
      ],
      "stateMutability": "nonpayable",
      "type": "function"
    },
    {
      "inputs": [
        {
          "internalType": "address",
          "name": "newEasAddr",
          "type": "address"
        }
      ],
      "name": "updateEAS",
      "outputs": [],
      "stateMutability": "nonpayable",
      "type": "function"
    },
    {
      "inputs": [
        {
          "internalType": "address",
          "name": "newWorldVerifier",
          "type": "address"
        }
      ],
      "name": "updateWorldVerifier",
      "outputs": [],
      "stateMutability": "nonpayable",
      "type": "function"
    }
  ],
  "bytecode": "0x60806040523480156200001157600080fd5b5060405162002b0c38038062002b0c83398181016040528101906200003791906200012a565b816000806101000a81548173ffffffffffffffffffffffffffffffffffffffff021916908373ffffffffffffffffffffffffffffffffffffffff16021790555080600160006101000a81548173ffffffffffffffffffffffffffffffffffffffff021916908373ffffffffffffffffffffffffffffffffffffffff160217905550505062000171565b600080fd5b600073ffffffffffffffffffffffffffffffffffffffff82169050919050565b6000620000f282620000c5565b9050919050565b6200010481620000e5565b81146200011057600080fd5b50565b6000815190506200012481620000f9565b92915050565b60008060408385031215620001445762000143620000c0565b5b6000620001548582860162000113565b9250506020620001678582860162000113565b9150509250929050565b61298b80620001816000396000f3fe608060405234801561001057600080fd5b50600436106100885760003560e01c8063cad6aab71161005b578063cad6aab714610139578063d9bde87614610155578063e14ad59a14610185578063e5c331e8146101b557610088565b806318c9682b1461008d578063b0c1979d146100a9578063ba2e85e7146100d9578063ca94aada14610109575b600080fd5b6100a760048036038101906100a291906117e9565b6101e5565b005b6100c360048036038101906100be91906118b1565b6102b9565b6040516100d09190611aad565b60405180910390f35b6100f360048036038101906100ee9190611b05565b6105ab565b6040516101009190611aad565b60405180910390f35b610123600480360381019061011e9190611b8d565b610b95565b6040516101309190611cf2565b60405180910390f35b610153600480360381019061014e91906117e9565b610e6f565b005b61016f600480360381019061016a9190611d14565b610f42565b60405161017c9190611aad565b60405180910390f35b61019f600480360381019061019a9190611d96565b6112b4565b6040516101ac9190611aad565b60405180910390f35b6101cf60048036038101906101ca91906117e9565b6116de565b6040516101dc9190611e68565b60405180910390f35b600260009054906101000a900473ffffffffffffffffffffffffffffffffffffffff1673ffffffffffffffffffffffffffffffffffffffff163373ffffffffffffffffffffffffffffffffffffffff1614610275576040517f08c379a000000000000000000000000000000000000000000000000000000000815260040161026c90611f06565b60405180910390fd5b80600160006101000a81548173ffffffffffffffffffffffffffffffffffffffff021916908373ffffffffffffffffffffffffffffffffffffffff16021790555050565b6102c1611727565b6000600560008573ffffffffffffffffffffffffffffffffffffffff1673ffffffffffffffffffffffffffffffffffffffff16815260200190815260200160002060008481526020019081526020016000206000600460008773ffffffffffffffffffffffffffffffffffffffff1673ffffffffffffffffffffffffffffffffffffffff16815260200190815260200160002060008681526020019081526020016000205481526020019081526020016000209050858582600001918261038992919061216c565b50428160010181905550338160020160006101000a81548173ffffffffffffffffffffffffffffffffffffffff021916908373ffffffffffffffffffffffffffffffffffffffff16021790555060018160020160146101000a81548160ff021916908360038111156103fe576103fd6119d3565b5b0217905550600460008573ffffffffffffffffffffffffffffffffffffffff1673ffffffffffffffffffffffffffffffffffffffff1681526020019081526020016000206000848152602001908152602001600020600081546104609061226b565b919050819055508060405180608001604052908160008201805461048390611f8f565b80601f01602080910402602001604051908101604052809291908181526020018280546104af90611f8f565b80156104fc5780601f106104d1576101008083540402835291602001916104fc565b820191906000526020600020905b8154815290600101906020018083116104df57829003601f168201915b50505050508152602001600182015481526020016002820160009054906101000a900473ffffffffffffffffffffffffffffffffffffffff1673ffffffffffffffffffffffffffffffffffffffff1673ffffffffffffffffffffffffffffffffffffffff1681526020016002820160149054906101000a900460ff16600381111561058a576105896119d3565b5b600381111561059c5761059b6119d3565b5b81525050915050949350505050565b6105b3611727565b338483600073ffffffffffffffffffffffffffffffffffffffff1660008054906101000a900473ffffffffffffffffffffffffffffffffffffffff1673ffffffffffffffffffffffffffffffffffffffff1603610645576040517f08c379a000000000000000000000000000000000000000000000000000000000815260040161063c90612325565b60405180910390fd5b60008054906101000a900473ffffffffffffffffffffffffffffffffffffffff1673ffffffffffffffffffffffffffffffffffffffff1663e30bb563826040518263ffffffff1660e01b815260040161069e9190612354565b602060405180830381865afa1580156106bb573d6000803e3d6000fd5b505050506040513d601f19601f820116820180604052508101906106df91906123a7565b61071e576040517f08c379a000000000000000000000000000000000000000000000000000000000815260040161071590612420565b60405180910390fd5b60008060009054906101000a900473ffffffffffffffffffffffffffffffffffffffff1673ffffffffffffffffffffffffffffffffffffffff1663a3112a64836040518263ffffffff1660e01b815260040161077a9190612354565b600060405180830381865afa158015610797573d6000803e3d6000fd5b505050506040513d6000823e3d601f19601f820116820180604052508101906107c091906126b8565b90508373ffffffffffffffffffffffffffffffffffffffff168160c0015173ffffffffffffffffffffffffffffffffffffffff1614610834576040517f08c379a000000000000000000000000000000000000000000000000000000000815260040161082b90612773565b60405180910390fd5b8273ffffffffffffffffffffffffffffffffffffffff168160e0015173ffffffffffffffffffffffffffffffffffffffff16146108a6576040517f08c379a000000000000000000000000000000000000000000000000000000000815260040161089d90612805565b60405180910390fd5b6000600560008a73ffffffffffffffffffffffffffffffffffffffff1673ffffffffffffffffffffffffffffffffffffffff16815260200190815260200160002060008981526020019081526020016000206000600460008c73ffffffffffffffffffffffffffffffffffffffff1673ffffffffffffffffffffffffffffffffffffffff16815260200190815260200160002060008b815260200190815260200160002054815260200190815260200160002090508a8a82600001918261096e92919061216c565b50428160010181905550338160020160006101000a81548173ffffffffffffffffffffffffffffffffffffffff021916908373ffffffffffffffffffffffffffffffffffffffff16021790555060028160020160146101000a81548160ff021916908360038111156109e3576109e26119d3565b5b0217905550600460008a73ffffffffffffffffffffffffffffffffffffffff1673ffffffffffffffffffffffffffffffffffffffff168152602001908152602001600020600089815260200190815260200160002060008154610a459061226b565b9190508190555080604051806080016040529081600082018054610a6890611f8f565b80601f0160208091040260200160405190810160405280929190818152602001828054610a9490611f8f565b8015610ae15780601f10610ab657610100808354040283529160200191610ae1565b820191906000526020600020905b815481529060010190602001808311610ac457829003601f168201915b50505050508152602001600182015481526020016002820160009054906101000a900473ffffffffffffffffffffffffffffffffffffffff1673ffffffffffffffffffffffffffffffffffffffff1673ffffffffffffffffffffffffffffffffffffffff1681526020016002820160149054906101000a900460ff166003811115610b6f57610b6e6119d3565b5b6003811115610b8157610b806119d3565b5b815250509550505050505095945050505050565b60606000600460008573ffffffffffffffffffffffffffffffffffffffff1673ffffffffffffffffffffffffffffffffffffffff16815260200190815260200160002060008481526020019081526020016000205467ffffffffffffffff811115610c0357610c02611f31565b5b604051908082528060200260200182016040528015610c3c57816020015b610c29611727565b815260200190600190039081610c215790505b50905060005b600460008673ffffffffffffffffffffffffffffffffffffffff1673ffffffffffffffffffffffffffffffffffffffff168152602001908152602001600020600085815260200190815260200160002054811015610e6457600560008673ffffffffffffffffffffffffffffffffffffffff1673ffffffffffffffffffffffffffffffffffffffff16815260200190815260200160002060008581526020019081526020016000206000828152602001908152602001600020604051806080016040529081600082018054610d1690611f8f565b80601f0160208091040260200160405190810160405280929190818152602001828054610d4290611f8f565b8015610d8f5780601f10610d6457610100808354040283529160200191610d8f565b820191906000526020600020905b815481529060010190602001808311610d7257829003601f168201915b50505050508152602001600182015481526020016002820160009054906101000a900473ffffffffffffffffffffffffffffffffffffffff1673ffffffffffffffffffffffffffffffffffffffff1673ffffffffffffffffffffffffffffffffffffffff1681526020016002820160149054906101000a900460ff166003811115610e1d57610e1c6119d3565b5b6003811115610e2f57610e2e6119d3565b5b81525050828281518110610e4657610e45612825565b5b60200260200101819052508080610e5c9061226b565b915050610c42565b508091505092915050565b600260009054906101000a900473ffffffffffffffffffffffffffffffffffffffff1673ffffffffffffffffffffffffffffffffffffffff163373ffffffffffffffffffffffffffffffffffffffff1614610eff576040517f08c379a0000000000000000000000000000000000000000000000000000000008152600401610ef690611f06565b60405180910390fd5b806000806101000a81548173ffffffffffffffffffffffffffffffffffffffff021916908373ffffffffffffffffffffffffffffffffffffffff16021790555050565b610f4a611727565b6000600560008473ffffffffffffffffffffffffffffffffffffffff1673ffffffffffffffffffffffffffffffffffffffff1681526020019081526020016000206000600360008673ffffffffffffffffffffffffffffffffffffffff1673ffffffffffffffffffffffffffffffffffffffff16815260200190815260200160002054815260200190815260200160002060008081526020019081526020016000209050848482600001918261100192919061216c565b50428160010181905550338160020160006101000a81548173ffffffffffffffffffffffffffffffffffffffff021916908373ffffffffffffffffffffffffffffffffffffffff16021790555060008160020160146101000a81548160ff02191690836003811115611076576110756119d3565b5b0217905550600460008473ffffffffffffffffffffffffffffffffffffffff1673ffffffffffffffffffffffffffffffffffffffff1681526020019081526020016000206000600360008673ffffffffffffffffffffffffffffffffffffffff1673ffffffffffffffffffffffffffffffffffffffff168152602001908152602001600020548152602001908152602001600020600081546111179061226b565b91905081905550600360008473ffffffffffffffffffffffffffffffffffffffff1673ffffffffffffffffffffffffffffffffffffffff1681526020019081526020016000206000815461116a9061226b565b919050819055508060405180608001604052908160008201805461118d90611f8f565b80601f01602080910402602001604051908101604052809291908181526020018280546111b990611f8f565b80156112065780601f106111db57610100808354040283529160200191611206565b820191906000526020600020905b8154815290600101906020018083116111e957829003601f168201915b50505050508152602001600182015481526020016002820160009054906101000a900473ffffffffffffffffffffffffffffffffffffffff1673ffffffffffffffffffffffffffffffffffffffff1673ffffffffffffffffffffffffffffffffffffffff1681526020016002820160149054906101000a900460ff166003811115611294576112936119d3565b5b60038111156112a6576112a56119d3565b5b815250509150509392505050565b6112bc611727565b600073ffffffffffffffffffffffffffffffffffffffff16600160009054906101000a900473ffffffffffffffffffffffffffffffffffffffff1673ffffffffffffffffffffffffffffffffffffffff160361134d576040517f08c379a0000000000000000000000000000000000000000000000000000000008152600401611344906128c6565b60405180910390fd5b600160009054906101000a900473ffffffffffffffffffffffffffffffffffffffff1673ffffffffffffffffffffffffffffffffffffffff1663fa0795fb868686866040518563ffffffff1660e01b81526004016113ae949392919061290f565b602060405180830381865afa1580156113cb573d6000803e3d6000fd5b505050506040513d601f19601f820116820180604052508101906113ef91906123a7565b506000600560008973ffffffffffffffffffffffffffffffffffffffff1673ffffffffffffffffffffffffffffffffffffffff16815260200190815260200160002060008881526020019081526020016000206000600460008b73ffffffffffffffffffffffffffffffffffffffff1673ffffffffffffffffffffffffffffffffffffffff16815260200190815260200160002060008a8152602001908152602001600020548152602001908152602001600020905089898260000191826114b892919061216c565b50428160010181905550338160020160006101000a81548173ffffffffffffffffffffffffffffffffffffffff021916908373ffffffffffffffffffffffffffffffffffffffff16021790555060038160020160146101000a81548160ff0219169083600381111561152d5761152c6119d3565b5b0217905550600460008973ffffffffffffffffffffffffffffffffffffffff1673ffffffffffffffffffffffffffffffffffffffff16815260200190815260200160002060008881526020019081526020016000206000815461158f9061226b565b91905081905550806040518060800160405290816000820180546115b290611f8f565b80601f01602080910402602001604051908101604052809291908181526020018280546115de90611f8f565b801561162b5780601f106116005761010080835404028352916020019161162b565b820191906000526020600020905b81548152906001019060200180831161160e57829003601f168201915b50505050508152602001600182015481526020016002820160009054906101000a900473ffffffffffffffffffffffffffffffffffffffff1673ffffffffffffffffffffffffffffffffffffffff1673ffffffffffffffffffffffffffffffffffffffff1681526020016002820160149054906101000a900460ff1660038111156116b9576116b86119d3565b5b60038111156116cb576116ca6119d3565b5b8152505091505098975050505050505050565b6000600360008373ffffffffffffffffffffffffffffffffffffffff1673ffffffffffffffffffffffffffffffffffffffff168152602001908152602001600020549050919050565b60405180608001604052806060815260200160008152602001600073ffffffffffffffffffffffffffffffffffffffff16815260200160006003811115611771576117706119d3565b5b81525090565b6000604051905090565b600080fd5b600080fd5b600073ffffffffffffffffffffffffffffffffffffffff82169050919050565b60006117b68261178b565b9050919050565b6117c6816117ab565b81146117d157600080fd5b50565b6000813590506117e3816117bd565b92915050565b6000602082840312156117ff576117fe611781565b5b600061180d848285016117d4565b91505092915050565b600080fd5b600080fd5b600080fd5b60008083601f84011261183b5761183a611816565b5b8235905067ffffffffffffffff8111156118585761185761181b565b5b60208301915083600182028301111561187457611873611820565b5b9250929050565b6000819050919050565b61188e8161187b565b811461189957600080fd5b50565b6000813590506118ab81611885565b92915050565b600080600080606085870312156118cb576118ca611781565b5b600085013567ffffffffffffffff8111156118e9576118e8611786565b5b6118f587828801611825565b94509450506020611908878288016117d4565b92505060406119198782880161189c565b91505092959194509250565b600081519050919050565b600082825260208201905092915050565b60005b8381101561195f578082015181840152602081019050611944565b60008484015250505050565b6000601f19601f8301169050919050565b600061198782611925565b6119918185611930565b93506119a1818560208601611941565b6119aa8161196b565b840191505092915050565b6119be8161187b565b82525050565b6119cd816117ab565b82525050565b7f4e487b7100000000000000000000000000000000000000000000000000000000600052602160045260246000fd5b60048110611a1357611a126119d3565b5b50565b6000819050611a2482611a02565b919050565b6000611a3482611a16565b9050919050565b611a4481611a29565b82525050565b60006080830160008301518482036000860152611a67828261197c565b9150506020830151611a7c60208601826119b5565b506040830151611a8f60408601826119c4565b506060830151611aa26060860182611a3b565b508091505092915050565b60006020820190508181036000830152611ac78184611a4a565b905092915050565b6000819050919050565b611ae281611acf565b8114611aed57600080fd5b50565b600081359050611aff81611ad9565b92915050565b600080600080600060808688031215611b2157611b20611781565b5b600086013567ffffffffffffffff811115611b3f57611b3e611786565b5b611b4b88828901611825565b95509550506020611b5e888289016117d4565b9350506040611b6f8882890161189c565b9250506060611b8088828901611af0565b9150509295509295909350565b60008060408385031215611ba457611ba3611781565b5b6000611bb2858286016117d4565b9250506020611bc38582860161189c565b9150509250929050565b600081519050919050565b600082825260208201905092915050565b6000819050602082019050919050565b60006080830160008301518482036000860152611c16828261197c565b9150506020830151611c2b60208601826119b5565b506040830151611c3e60408601826119c4565b506060830151611c516060860182611a3b565b508091505092915050565b6000611c688383611bf9565b905092915050565b6000602082019050919050565b6000611c8882611bcd565b611c928185611bd8565b935083602082028501611ca485611be9565b8060005b85811015611ce05784840389528151611cc18582611c5c565b9450611ccc83611c70565b925060208a01995050600181019050611ca8565b50829750879550505050505092915050565b60006020820190508181036000830152611d0c8184611c7d565b905092915050565b600080600060408486031215611d2d57611d2c611781565b5b600084013567ffffffffffffffff811115611d4b57611d4a611786565b5b611d5786828701611825565b93509350506020611d6a868287016117d4565b9150509250925092565b600081905082602060080282011115611d9057611d8f611820565b5b92915050565b6000806000806000806000806101c0898b031215611db757611db6611781565b5b600089013567ffffffffffffffff811115611dd557611dd4611786565b5b611de18b828c01611825565b98509850506020611df48b828c016117d4565b9650506040611e058b828c0161189c565b9550506060611e168b828c016117d4565b9450506080611e278b828c0161189c565b93505060a0611e388b828c0161189c565b92505060c0611e498b828c01611d74565b9150509295985092959890939650565b611e628161187b565b82525050565b6000602082019050611e7d6000830184611e59565b92915050565b600082825260208201905092915050565b7f616374696f6e206d75737420626520706572666f726d6564206279207468652060008201527f616464726573732074686174206465706c6f7965640000000000000000000000602082015250565b6000611ef0603583611e83565b9150611efb82611e94565b604082019050919050565b60006020820190508181036000830152611f1f81611ee3565b9050919050565b600082905092915050565b7f4e487b7100000000000000000000000000000000000000000000000000000000600052604160045260246000fd5b7f4e487b7100000000000000000000000000000000000000000000000000000000600052602260045260246000fd5b60006002820490506001821680611fa757607f821691505b602082108103611fba57611fb9611f60565b5b50919050565b60008190508160005260206000209050919050565b60006020601f8301049050919050565b600082821b905092915050565b6000600883026120227fffffffffffffffffffffffffffffffffffffffffffffffffffffffffffffffff82611fe5565b61202c8683611fe5565b95508019841693508086168417925050509392505050565b6000819050919050565b600061206961206461205f8461187b565b612044565b61187b565b9050919050565b6000819050919050565b6120838361204e565b61209761208f82612070565b848454611ff2565b825550505050565b600090565b6120ac61209f565b6120b781848461207a565b505050565b5b818110156120db576120d06000826120a4565b6001810190506120bd565b5050565b601f821115612120576120f181611fc0565b6120fa84611fd5565b81016020851015612109578190505b61211d61211585611fd5565b8301826120bc565b50505b505050565b600082821c905092915050565b600061214360001984600802612125565b1980831691505092915050565b600061215c8383612132565b9150826002028217905092915050565b6121768383611f26565b67ffffffffffffffff81111561218f5761218e611f31565b5b6121998254611f8f565b6121a48282856120df565b6000601f8311600181146121d357600084156121c1578287013590505b6121cb8582612150565b865550612233565b601f1984166121e186611fc0565b60005b82811015612209578489013582556001820191506020850194506020810190506121e4565b868310156122265784890135612222601f891682612132565b8355505b6001600288020188555050505b50505050505050565b7f4e487b7100000000000000000000000000000000000000000000000000000000600052601160045260246000fd5b60006122768261187b565b91507fffffffffffffffffffffffffffffffffffffffffffffffffffffffffffffffff82036122a8576122a761223c565b5b600182019050919050565b7f63616e6e6f7420706572666f726d20616374696f6e207769746820756e73657460008201527f2045415320616464726573730000000000000000000000000000000000000000602082015250565b600061230f602c83611e83565b915061231a826122b3565b604082019050919050565b6000602082019050818103600083015261233e81612302565b9050919050565b61234e81611acf565b82525050565b60006020820190506123696000830184612345565b92915050565b60008115159050919050565b6123848161236f565b811461238f57600080fd5b50565b6000815190506123a18161237b565b92915050565b6000602082840312156123bd576123bc611781565b5b60006123cb84828501612392565b91505092915050565b7f6174746573746174696f6e206d7573742062652076616c696400000000000000600082015250565b600061240a601983611e83565b9150612415826123d4565b602082019050919050565b60006020820190508181036000830152612439816123fd565b9050919050565b600080fd5b61244e8261196b565b810181811067ffffffffffffffff8211171561246d5761246c611f31565b5b80604052505050565b6000612480611777565b905061248c8282612445565b919050565b600080fd5b6000815190506124a581611ad9565b92915050565b600067ffffffffffffffff82169050919050565b6124c8816124ab565b81146124d357600080fd5b50565b6000815190506124e5816124bf565b92915050565b6000815190506124fa816117bd565b92915050565b600080fd5b600067ffffffffffffffff8211156125205761251f611f31565b5b6125298261196b565b9050602081019050919050565b600061254961254484612505565b612476565b90508281526020810184848401111561256557612564612500565b5b612570848285611941565b509392505050565b600082601f83011261258d5761258c611816565b5b815161259d848260208601612536565b91505092915050565b600061014082840312156125bd576125bc612440565b5b6125c8610140612476565b905060006125d884828501612496565b60008301525060206125ec84828501612496565b6020830152506040612600848285016124d6565b6040830152506060612614848285016124d6565b6060830152506080612628848285016124d6565b60808301525060a061263c84828501612496565b60a08301525060c0612650848285016124eb565b60c08301525060e0612664848285016124eb565b60e08301525061010061267984828501612392565b6101008301525061012082015167ffffffffffffffff81111561269f5761269e612491565b5b6126ab84828501612578565b6101208301525092915050565b6000602082840312156126ce576126cd611781565b5b600082015167ffffffffffffffff8111156126ec576126eb611786565b5b6126f8848285016125a6565b91505092915050565b7f63616c6c6572206d75737420626520726563697069656e74206f66207468652060008201527f6174746573746174696f6e000000000000000000000000000000000000000000602082015250565b600061275d602b83611e83565b915061276882612701565b604082019050919050565b6000602082019050818103600083015261278c81612750565b9050919050565b7f6174746573746572206f6620746865206174746573746174696f6e206d75737460008201527f206d617463682074686520657870656374656400000000000000000000000000602082015250565b60006127ef603383611e83565b91506127fa82612793565b604082019050919050565b6000602082019050818103600083015261281e816127e2565b9050919050565b7f4e487b7100000000000000000000000000000000000000000000000000000000600052603260045260246000fd5b7f63616e6e6f7420636f7369676e20776974686f757420612076616c696420576f60008201527f726c64636f696e56657269666965720000000000000000000000000000000000602082015250565b60006128b0602f83611e83565b91506128bb82612854565b604082019050919050565b600060208201905081810360008301526128df816128a3565b9050919050565b6128ef816117ab565b82525050565b82818337505050565b61290b61010083836128f5565b5050565b60006101608201905061292560008301876128e6565b6129326020830186611e59565b61293f6040830185611e59565b61294c60608301846128fe565b9594505050505056fea26469706673582212203f9fb6a31881126159cf4a108e16f91e0b5d712a5e33086aabeba10b6478d83164736f6c63430008120033",
  "linkReferences": {},
  "deployedLinkReferences": {}
}