{
  "_format": "hh-sol-artifact-1",
  "abi": [
    {
      "inputs": [
        {
          "internalType": "address",
          "name": "_account",
          "type": "address"
        }
      ],
      "name": "getNumThreads",
      "outputs": [
        {
          "internalType": "uint256",
          "name": "",
          "type": "uint256"
        }
      ],
      "stateMutability": "view",
      "type": "function"
    },
    {
      "inputs": [
        {
          "internalType": "address",
          "name": "_account",
          "type": "address"
        },
        {
          "internalType": "uint256",
          "name": "_thread",
          "type": "uint256"
        }
      ],
      "name": "getPostsInThread",
      "outputs": [
        {
          "internalType": "string[]",
          "name": "",
          "type": "string[]"
        }
      ],
      "stateMutability": "view",
      "type": "function"
    },
    {
      "inputs": [
        {
          "internalType": "string",
          "name": "_cid",
          "type": "string"
        },
        {
          "internalType": "address",
          "name": "_account",
          "type": "address"
        },
        {
          "internalType": "uint256",
          "name": "threadNum",
          "type": "uint256"
        }
      ],
      "name": "newPost",
      "outputs": [
        {
          "components": [
            {
              "internalType": "string",
              "name": "cid",
              "type": "string"
            },
            {
              "internalType": "uint256",
              "name": "blockstamp",
              "type": "uint256"
            },
            {
              "internalType": "string",
              "name": "uid",
              "type": "string"
            }
          ],
          "internalType": "struct PostTrackerV1.Post",
          "name": "",
          "type": "tuple"
        }
      ],
      "stateMutability": "nonpayable",
      "type": "function"
    },
    {
      "inputs": [
        {
          "internalType": "string",
          "name": "_cid",
          "type": "string"
        },
        {
          "internalType": "address",
          "name": "_account",
          "type": "address"
        }
      ],
      "name": "newPost",
      "outputs": [
        {
          "components": [
            {
              "internalType": "string",
              "name": "cid",
              "type": "string"
            },
            {
              "internalType": "uint256",
              "name": "blockstamp",
              "type": "uint256"
            },
            {
              "internalType": "string",
              "name": "uid",
              "type": "string"
            }
          ],
          "internalType": "struct PostTrackerV1.Post",
          "name": "",
          "type": "tuple"
        }
      ],
      "stateMutability": "nonpayable",
      "type": "function"
    }
  ],
  "bytecode": "0x608060405234801561001057600080fd5b5061116f806100206000396000f3fe608060405234801561001057600080fd5b506004361061004c5760003560e01c80631473a8b714610051578063ca94aada14610081578063d9bde876146100b1578063e5c331e8146100e1575b600080fd5b61006b60048036038101906100669190610a16565b610111565b6040516100789190610b80565b60405180910390f35b61009b60048036038101906100969190610ba2565b61038b565b6040516100a89190610ca4565b60405180910390f35b6100cb60048036038101906100c69190610cc6565b6105b3565b6040516100d89190610b80565b60405180910390f35b6100fb60048036038101906100f69190610d26565b6108aa565b6040516101089190610d62565b60405180910390f35b6101196108f2565b6000600260008573ffffffffffffffffffffffffffffffffffffffff1673ffffffffffffffffffffffffffffffffffffffff16815260200190815260200160002060008481526020019081526020016000206000600160008773ffffffffffffffffffffffffffffffffffffffff1673ffffffffffffffffffffffffffffffffffffffff1681526020019081526020016000206000868152602001908152602001600020548152602001908152602001600020905085858260000191826101e1929190610fc3565b50600160008573ffffffffffffffffffffffffffffffffffffffff1673ffffffffffffffffffffffffffffffffffffffff16815260200190815260200160002060008481526020019081526020016000206000815461023f906110c2565b919050819055508060405180606001604052908160008201805461026290610de6565b80601f016020809104026020016040519081016040528092919081815260200182805461028e90610de6565b80156102db5780601f106102b0576101008083540402835291602001916102db565b820191906000526020600020905b8154815290600101906020018083116102be57829003601f168201915b50505050508152602001600182015481526020016002820180546102fe90610de6565b80601f016020809104026020016040519081016040528092919081815260200182805461032a90610de6565b80156103775780601f1061034c57610100808354040283529160200191610377565b820191906000526020600020905b81548152906001019060200180831161035a57829003601f168201915b505050505081525050915050949350505050565b60606000600160008573ffffffffffffffffffffffffffffffffffffffff1673ffffffffffffffffffffffffffffffffffffffff16815260200190815260200160002060008481526020019081526020016000205467ffffffffffffffff8111156103f9576103f8610d88565b5b60405190808252806020026020018201604052801561042c57816020015b60608152602001906001900390816104175790505b50905060005b600160008673ffffffffffffffffffffffffffffffffffffffff1673ffffffffffffffffffffffffffffffffffffffff1681526020019081526020016000206000858152602001908152602001600020548110156105a857600260008673ffffffffffffffffffffffffffffffffffffffff1673ffffffffffffffffffffffffffffffffffffffff1681526020019081526020016000206000858152602001908152602001600020600082815260200190815260200160002060000180546104f990610de6565b80601f016020809104026020016040519081016040528092919081815260200182805461052590610de6565b80156105725780601f1061054757610100808354040283529160200191610572565b820191906000526020600020905b81548152906001019060200180831161055557829003601f168201915b505050505082828151811061058a5761058961110a565b5b602002602001018190525080806105a0906110c2565b915050610432565b508091505092915050565b6105bb6108f2565b6000600260008473ffffffffffffffffffffffffffffffffffffffff1673ffffffffffffffffffffffffffffffffffffffff16815260200190815260200160002060008060008673ffffffffffffffffffffffffffffffffffffffff1673ffffffffffffffffffffffffffffffffffffffff168152602001908152602001600020548152602001908152602001600020600080815260200190815260200160002090508484826000019182610671929190610fc3565b50600160008473ffffffffffffffffffffffffffffffffffffffff1673ffffffffffffffffffffffffffffffffffffffff16815260200190815260200160002060008060008673ffffffffffffffffffffffffffffffffffffffff1673ffffffffffffffffffffffffffffffffffffffff1681526020019081526020016000205481526020019081526020016000206000815461070d906110c2565b919050819055506000808473ffffffffffffffffffffffffffffffffffffffff1673ffffffffffffffffffffffffffffffffffffffff1681526020019081526020016000206000815461075f906110c2565b919050819055508060405180606001604052908160008201805461078290610de6565b80601f01602080910402602001604051908101604052809291908181526020018280546107ae90610de6565b80156107fb5780601f106107d0576101008083540402835291602001916107fb565b820191906000526020600020905b8154815290600101906020018083116107de57829003601f168201915b505050505081526020016001820154815260200160028201805461081e90610de6565b80601f016020809104026020016040519081016040528092919081815260200182805461084a90610de6565b80156108975780601f1061086c57610100808354040283529160200191610897565b820191906000526020600020905b81548152906001019060200180831161087a57829003601f168201915b5050505050815250509150509392505050565b60008060008373ffffffffffffffffffffffffffffffffffffffff1673ffffffffffffffffffffffffffffffffffffffff168152602001908152602001600020549050919050565b60405180606001604052806060815260200160008152602001606081525090565b600080fd5b600080fd5b600080fd5b600080fd5b600080fd5b60008083601f8401126109425761094161091d565b5b8235905067ffffffffffffffff81111561095f5761095e610922565b5b60208301915083600182028301111561097b5761097a610927565b5b9250929050565b600073ffffffffffffffffffffffffffffffffffffffff82169050919050565b60006109ad82610982565b9050919050565b6109bd816109a2565b81146109c857600080fd5b50565b6000813590506109da816109b4565b92915050565b6000819050919050565b6109f3816109e0565b81146109fe57600080fd5b50565b600081359050610a10816109ea565b92915050565b60008060008060608587031215610a3057610a2f610913565b5b600085013567ffffffffffffffff811115610a4e57610a4d610918565b5b610a5a8782880161092c565b94509450506020610a6d878288016109cb565b9250506040610a7e87828801610a01565b91505092959194509250565b600081519050919050565b600082825260208201905092915050565b60005b83811015610ac4578082015181840152602081019050610aa9565b60008484015250505050565b6000601f19601f8301169050919050565b6000610aec82610a8a565b610af68185610a95565b9350610b06818560208601610aa6565b610b0f81610ad0565b840191505092915050565b610b23816109e0565b82525050565b60006060830160008301518482036000860152610b468282610ae1565b9150506020830151610b5b6020860182610b1a565b5060408301518482036040860152610b738282610ae1565b9150508091505092915050565b60006020820190508181036000830152610b9a8184610b29565b905092915050565b60008060408385031215610bb957610bb8610913565b5b6000610bc7858286016109cb565b9250506020610bd885828601610a01565b9150509250929050565b600081519050919050565b600082825260208201905092915050565b6000819050602082019050919050565b6000610c1a8383610ae1565b905092915050565b6000602082019050919050565b6000610c3a82610be2565b610c448185610bed565b935083602082028501610c5685610bfe565b8060005b85811015610c925784840389528151610c738582610c0e565b9450610c7e83610c22565b925060208a01995050600181019050610c5a565b50829750879550505050505092915050565b60006020820190508181036000830152610cbe8184610c2f565b905092915050565b600080600060408486031215610cdf57610cde610913565b5b600084013567ffffffffffffffff811115610cfd57610cfc610918565b5b610d098682870161092c565b93509350506020610d1c868287016109cb565b9150509250925092565b600060208284031215610d3c57610d3b610913565b5b6000610d4a848285016109cb565b91505092915050565b610d5c816109e0565b82525050565b6000602082019050610d776000830184610d53565b92915050565b600082905092915050565b7f4e487b7100000000000000000000000000000000000000000000000000000000600052604160045260246000fd5b7f4e487b7100000000000000000000000000000000000000000000000000000000600052602260045260246000fd5b60006002820490506001821680610dfe57607f821691505b602082108103610e1157610e10610db7565b5b50919050565b60008190508160005260206000209050919050565b60006020601f8301049050919050565b600082821b905092915050565b600060088302610e797fffffffffffffffffffffffffffffffffffffffffffffffffffffffffffffffff82610e3c565b610e838683610e3c565b95508019841693508086168417925050509392505050565b6000819050919050565b6000610ec0610ebb610eb6846109e0565b610e9b565b6109e0565b9050919050565b6000819050919050565b610eda83610ea5565b610eee610ee682610ec7565b848454610e49565b825550505050565b600090565b610f03610ef6565b610f0e818484610ed1565b505050565b5b81811015610f3257610f27600082610efb565b600181019050610f14565b5050565b601f821115610f7757610f4881610e17565b610f5184610e2c565b81016020851015610f60578190505b610f74610f6c85610e2c565b830182610f13565b50505b505050565b600082821c905092915050565b6000610f9a60001984600802610f7c565b1980831691505092915050565b6000610fb38383610f89565b9150826002028217905092915050565b610fcd8383610d7d565b67ffffffffffffffff811115610fe657610fe5610d88565b5b610ff08254610de6565b610ffb828285610f36565b6000601f83116001811461102a5760008415611018578287013590505b6110228582610fa7565b86555061108a565b601f19841661103886610e17565b60005b828110156110605784890135825560018201915060208501945060208101905061103b565b8683101561107d5784890135611079601f891682610f89565b8355505b6001600288020188555050505b50505050505050565b7f4e487b7100000000000000000000000000000000000000000000000000000000600052601160045260246000fd5b60006110cd826109e0565b91507fffffffffffffffffffffffffffffffffffffffffffffffffffffffffffffffff82036110ff576110fe611093565b5b600182019050919050565b7f4e487b7100000000000000000000000000000000000000000000000000000000600052603260045260246000fdfea2646970667358221220f8105d759f0ae0fd159d4f87707377f228095900adda5af927da9a3c439f43dd64736f6c63430008120033",
  "contractName": "PostTrackerV1",
  "deployedLinkReferences": {},
  "linkReferences": {},
  "sourceName": "contracts/PostTrackerV1.sol"
}